:1000000012C0189518951895189518951895189563
:100010001895189518951895189518951895189578
:100020001895189518958FE58DBFC8E3E0E24E2E20
:1000300084E08EBFD4E0F4E05F2EA89584B7082E4C
:10004000877F84BF88E1992781BD91BDEEEFF3E002
:10005000A0E6B0E088278D933197E9F766248FEF0B
:1000600084BB8FEF81BBA09883E886B980E487B911
:10007000379A07B1007F07B958D1A9E6B0E08D9350
:100080009C93A9E6B0E00D911C9142E050E016D19E
:10009000A9E6B0E04D935C9385E090E032D13798CB
:1000A000E9E6F0E0A2E6B0E05CD163D0929881E0AE
:1000B000E2E6F0E001E00A93A7E6B0E0D7D1A7E6D8
:1000C000B0E0A2D1A1E6B0E00C93A1E6B0E0BA9313
:1000D000AA9353D02296A9E6B0E00D911C910A3064
:1000E00050E0150708F001C0AD9885E090E009D117
:1000F00040D0939882E0E2E6F0E001E00A93A7E6C0
:10010000B0E0B4D1A7E6B0E07FD1A1E6B0E00C93B7
:10011000A1E6B0E0BA93AA9330D02296A9E6B0E067
:100120000D911C910A3050E0150710F009F001C044
:1001300001C0AD9885E090E0E4D01BD0949883E0B6
:10014000E2E6F0E001E00A93A7E6B0E08FD1A7E68F
:10015000B0E05AD1A1E6B0E00C93A1E6B0E0BA93CA
:10016000AA930BD0229685E090E0CBD081CFF89473
:10017000FFCF929A939A949A0895A881B9810C918D
:10018000013009F009C0AA9AA9989798969A959A69
:10019000AB9AAC9AAD9A6CC0023009F009C0AA982B
:1001A000A998979A96989598AB9AAC98AD9A60C092
:1001B000033009F009C0AA98A99897989698959A3B
:1001C000AB9AAC98AD9A54C0043009F009C0AA9A11
:1001D000A9989798969A959AAB98AC98AD9A48C07A
:1001E000053009F009C0AA98A99A97989698959A07
:1001F000AB98AC98AD9A3CC0063009F009C0AA98FB
:10020000A99A979896989598AB98AC98AD9A30C063
:10021000073009F009C0AA98A9989798969A959AD4
:10022000AB9AAC9AAD9A24C0083009F009C0AA98DC
:10023000A998979896989598AB98AC98AD9A18C04D
:10024000093009F009C0AA98A99897989698959AA4
:10025000AB98AC98AD9A0CC0003009F009C0AA98D0
:10026000A998979896989598AB98AC9AAD9A00C033
:100270000895F894FFCF00FC10D0089503D01ED04D
:1002800001F8F9CF0024E89457FF02C009D0689420
:1002900000F80BD010F80124089502D009D0089579
:1002A000509540954F5F5F4F0895E89417FF08956C
:1002B000009510950F5F1F4F68940895352F242FD8
:1002C000E894452B11F468940895512F402F00278E
:1002D000112780E1440F551F001F111F021B130B34
:1002E000416018F4020F131F4E7F8A9599F7089505
:1002F0003197F1F70895689462F80895E89462F8E8
:100300000895EF93FF93EE27E82BE92B31F0EAEF06
:10031000F0E03197F1F70197D1F7FF91EF91089550
:1003200001911191219130810895369A3699FECF2D
:10033000369A3699FECF84B195B10895040F151FF2
:10034000261F371F0895000F111F221F331F089506
:1003500000951095209530950F5F1F4F2F4F3F4F01
:100360000895019110810DC0DBDF0DC0D9DF10C0F1
:100370000191108117FF05C03FEF2FEF04C00081EE
:1003800011272227332737FF03C0E2DF8DE28D9349
:10039000CF92DF92EF92AA24BB24CC24DD24EE245A
:1003A00040E2EAE0FF2755E093E38081890F87FD73
:1003B0009F7083FD907F891B81935A95A9F7C3DFB6
:1003C000AA1CBB1CCC1CDD1CEE1C4A9551F7E89402
:1003D000EFE0FF2782910BD0EB30E0F71EF068943E
:1003E0008A2D09D04D93EF90DF90CF900895982FEC
:1003F000829501D0892F8F70805D26F0803309F4BB
:10040000089568948D930895002711272227332794
:100410001DD08A3328F4803318F005D015D0F9CFD9
:100420000EF496CF089580538F93402F512F622F53
:10043000732F89DF88DF82DF86DF8F919927080F8E
:10044000191F291F391F08958D910895E894FCDF25
:100450008032E9F38B32D9F38930C9F38D3211F44C
:100460006894F2CF089588278D930895099191910A
:10047000992359F08A95D9F73197002331F081916A
:0C0480008D930A958823C9F70895EDCFED
:00000001FF
